{
  "_format": "hh-sol-artifact-1",
  "contractName": "GoogleDrive",
  "sourceName": "contracts/GoogleDrive.sol",
  "abi": [
    {
      "inputs": [],
      "name": "Resgister",
      "outputs": [],
      "stateMutability": "nonpayable",
      "type": "function"
    },
    {
      "inputs": [
        {
          "internalType": "uint256",
          "name": "",
          "type": "uint256"
        },
        {
          "internalType": "uint256",
          "name": "",
          "type": "uint256"
        },
        {
          "internalType": "uint256",
          "name": "",
          "type": "uint256"
        }
      ],
      "name": "allowedAddress",
      "outputs": [
        {
          "internalType": "address",
          "name": "",
          "type": "address"
        }
      ],
      "stateMutability": "view",
      "type": "function"
    },
    {
      "inputs": [
        {
          "internalType": "uint256",
          "name": "fileIndex",
          "type": "uint256"
        }
      ],
      "name": "checkWhoHasAccess",
      "outputs": [
        {
          "internalType": "address[]",
          "name": "",
          "type": "address[]"
        }
      ],
      "stateMutability": "view",
      "type": "function"
    },
    {
      "inputs": [],
      "name": "emptyTrashCan",
      "outputs": [],
      "stateMutability": "nonpayable",
      "type": "function"
    },
    {
      "inputs": [],
      "name": "getMyFiles",
      "outputs": [
        {
          "internalType": "string[]",
          "name": "",
          "type": "string[]"
        }
      ],
      "stateMutability": "view",
      "type": "function"
    },
    {
      "inputs": [
        {
          "internalType": "uint256",
          "name": "fileIndex",
          "type": "uint256"
        },
        {
          "internalType": "address",
          "name": "addressOfOwner",
          "type": "address"
        }
      ],
      "name": "getOthersFiles",
      "outputs": [
        {
          "internalType": "string",
          "name": "",
          "type": "string"
        }
      ],
      "stateMutability": "view",
      "type": "function"
    },
    {
      "inputs": [
        {
          "internalType": "uint256",
          "name": "fileIndex",
          "type": "uint256"
        },
        {
          "internalType": "address",
          "name": "addressToAllow",
          "type": "address"
        }
      ],
      "name": "giveOtherAccess",
      "outputs": [],
      "stateMutability": "nonpayable",
      "type": "function"
    },
    {
      "inputs": [
        {
          "internalType": "uint256",
          "name": "index",
          "type": "uint256"
        }
      ],
      "name": "moveToTrash",
      "outputs": [],
      "stateMutability": "nonpayable",
      "type": "function"
    },
    {
      "inputs": [
        {
          "internalType": "uint256",
          "name": "fileIndex",
          "type": "uint256"
        }
      ],
      "name": "permanentDelete",
      "outputs": [],
      "stateMutability": "nonpayable",
      "type": "function"
    },
    {
      "inputs": [
        {
          "internalType": "uint256",
          "name": "fileIndex",
          "type": "uint256"
        },
        {
          "internalType": "address",
          "name": "addressToRemove",
          "type": "address"
        }
      ],
      "name": "removeOtherAccess",
      "outputs": [],
      "stateMutability": "nonpayable",
      "type": "function"
    },
    {
      "inputs": [
        {
          "internalType": "uint256",
          "name": "fileIndex",
          "type": "uint256"
        }
      ],
      "name": "restoreFromTrash",
      "outputs": [],
      "stateMutability": "nonpayable",
      "type": "function"
    },
    {
      "inputs": [],
      "name": "seeTrashFiles",
      "outputs": [
        {
          "internalType": "string[]",
          "name": "",
          "type": "string[]"
        }
      ],
      "stateMutability": "view",
      "type": "function"
    },
    {
      "inputs": [
        {
          "internalType": "string",
          "name": "fileLink",
          "type": "string"
        }
      ],
      "name": "uploadFile",
      "outputs": [],
      "stateMutability": "nonpayable",
      "type": "function"
    }
  ],
  "bytecode": "0x608060405234801561001057600080fd5b50612652806100206000396000f3fe608060405234801561001057600080fd5b50600436106100cf5760003560e01c806392aa4fa11161008c578063c7fdd77011610066578063c7fdd770146101d8578063cc68ea32146101f4578063dce6c89f14610210578063e37ffc3014610240576100cf565b806392aa4fa114610182578063985e9c901461019e578063a39a006d146101ba576100cf565b80631466bf00146100d45780632699698f146100f0578063595cf2ce146101205780638498e6641461012a5780638537df741461015a57806390a4b0df14610164575b600080fd5b6100ee60048036038101906100e99190611b8e565b61025c565b005b61010a60048036038101906101059190611c19565b610474565b6040516101179190611cf2565b60405180910390f35b610128610637565b005b610144600480360381019061013f9190611d14565b6107f3565b6040516101519190611d76565b60405180910390f35b61016261084e565b005b61016c6108fc565b6040516101799190611e9d565b60405180910390f35b61019c60048036038101906101979190611c19565b610a36565b005b6101b860048036038101906101b39190611c19565b610c24565b005b6101c2610d6d565b6040516101cf9190611e9d565b60405180910390f35b6101f260048036038101906101ed9190611b8e565b610ead565b005b61020e60048036038101906102099190611b8e565b61110e565b005b61022a60048036038101906102259190611b8e565b6113e6565b6040516102379190611f7d565b60405180910390f35b61025a600480360381019061025591906120d4565b6115fd565b005b60006102673361169d565b9050600360008281526020019081526020016000208054905082106102c1576040517f08c379a00000000000000000000000000000000000000000000000000000000081526004016102b890612169565b60405180910390fd5b6103b76003600083815260200190815260200160002083815481106102e9576102e8612189565b5b9060005260206000200180546102fe906121e7565b80601f016020809104026020016040519081016040528092919081815260200182805461032a906121e7565b80156103775780601f1061034c57610100808354040283529160200191610377565b820191906000526020600020905b81548152906001019060200180831161035a57829003601f168201915b50505050506040518060400160405280600781526020017f44656c6574656400000000000000000000000000000000000000000000000000815250611766565b156103f7576040517f08c379a00000000000000000000000000000000000000000000000000000000081526004016103ee90612265565b60405180910390fd5b6040518060400160405280600781526020017f44656c657465640000000000000000000000000000000000000000000000000081525060036000838152602001908152602001600020838154811061045257610451612189565b5b90600052602060002001908051906020019061046f92919061196e565b505050565b606060006104818361169d565b9050600160008281526020019081526020016000208054905084106104db576040517f08c379a00000000000000000000000000000000000000000000000000000000081526004016104d290612169565b60405180910390fd5b6104e4836117bf565b610523576040517f08c379a000000000000000000000000000000000000000000000000000000000815260040161051a906122d1565b60405180910390fd5b600061053082863361186e565b905060008111610575576040517f08c379a000000000000000000000000000000000000000000000000000000000815260040161056c9061233d565b60405180910390fd5b60016000838152602001908152602001600020858154811061059a57610599612189565b5b9060005260206000200180546105af906121e7565b80601f01602080910402602001604051908101604052809291908181526020018280546105db906121e7565b80156106285780601f106105fd57610100808354040283529160200191610628565b820191906000526020600020905b81548152906001019060200180831161060b57829003601f168201915b50505050509250505092915050565b610640336117bf565b15610680576040517f08c379a0000000000000000000000000000000000000000000000000000000008152600401610677906123a9565b60405180910390fd5b6000339080600181540180825580915050600190039060005260206000200160009091909190916101000a81548173ffffffffffffffffffffffffffffffffffffffff021916908373ffffffffffffffffffffffffffffffffffffffff160217905550600160006106f03361169d565b815260200190815260200160002080600181540180825580915050600190039060005260206000200160006040518060400160405280600781526020017f44656c65746564000000000000000000000000000000000000000000000000008152509091909150908051906020019061076992919061196e565b50600360006107773361169d565b815260200190815260200160002080600181540180825580915050600190039060005260206000200160006040518060400160405280600781526020017f44656c6574656400000000000000000000000000000000000000000000000000815250909190915090805190602001906107f092919061196e565b50565b6002602052826000526040600020602052816000526040600020818154811061081b57600080fd5b90600052602060002001600092509250509054906101000a900473ffffffffffffffffffffffffffffffffffffffff1681565b60006108593361169d565b905060036000828152602001908152602001600020600061087a91906119f4565b6003600082815260200190815260200160002080600181540180825580915050600190039060005260206000200160006040518060400160405280600781526020017f44656c6574656400000000000000000000000000000000000000000000000000815250909190915090805190602001906108f892919061196e565b5050565b6060610907336117bf565b610946576040517f08c379a000000000000000000000000000000000000000000000000000000000815260040161093d90612415565b60405180910390fd5b600160006109533361169d565b8152602001908152602001600020805480602002602001604051908101604052809291908181526020016000905b82821015610a2d5783829060005260206000200180546109a0906121e7565b80601f01602080910402602001604051908101604052809291908181526020018280546109cc906121e7565b8015610a195780601f106109ee57610100808354040283529160200191610a19565b820191906000526020600020905b8154815290600101906020018083116109fc57829003601f168201915b505050505081526020019060010190610981565b50505050905090565b6000610a413361169d565b9050600160008281526020019081526020016000208054905083108015610b5b5750610b59600160008381526020019081526020016000208481548110610a8b57610a8a612189565b5b906000526020600020018054610aa0906121e7565b80601f0160208091040260200160405190810160405280929190818152602001828054610acc906121e7565b8015610b195780601f10610aee57610100808354040283529160200191610b19565b820191906000526020600020905b815481529060010190602001808311610afc57829003601f168201915b50505050506040518060400160405280600781526020017f44656c6574656400000000000000000000000000000000000000000000000000815250611766565b155b610b9a576040517f08c379a0000000000000000000000000000000000000000000000000000000008152600401610b9190612169565b60405180910390fd5b600260008281526020019081526020016000206000848152602001908152602001600020829080600181540180825580915050600190039060005260206000200160009091909190916101000a81548173ffffffffffffffffffffffffffffffffffffffff021916908373ffffffffffffffffffffffffffffffffffffffff160217905550505050565b6000610c2f3361169d565b905060016000828152602001908152602001600020805490508310610c89576040517f08c379a0000000000000000000000000000000000000000000000000000000008152600401610c8090612169565b60405180910390fd5b6000610c9682858561186e565b905060008111610cdb576040517f08c379a0000000000000000000000000000000000000000000000000000000008152600401610cd2906124a7565b60405180910390fd5b6000600260008481526020019081526020016000206000868152602001908152602001600020600183610d0e91906124f6565b81548110610d1f57610d1e612189565b5b9060005260206000200160006101000a81548173ffffffffffffffffffffffffffffffffffffffff021916908373ffffffffffffffffffffffffffffffffffffffff16021790555050505050565b60606000610d7a3361169d565b9050610d85336117bf565b610dc4576040517f08c379a0000000000000000000000000000000000000000000000000000000008152600401610dbb90612415565b60405180910390fd5b60036000828152602001908152602001600020805480602002602001604051908101604052809291908181526020016000905b82821015610ea3578382906000526020600020018054610e16906121e7565b80601f0160208091040260200160405190810160405280929190818152602001828054610e42906121e7565b8015610e8f5780601f10610e6457610100808354040283529160200191610e8f565b820191906000526020600020905b815481529060010190602001808311610e7257829003601f168201915b505050505081526020019060010190610df7565b5050505091505090565b6000610eb83361169d565b905060036000828152602001908152602001600020805490508210610f12576040517f08c379a0000000000000000000000000000000000000000000000000000000008152600401610f0990612169565b60405180910390fd5b611008600360008381526020019081526020016000208381548110610f3a57610f39612189565b5b906000526020600020018054610f4f906121e7565b80601f0160208091040260200160405190810160405280929190818152602001828054610f7b906121e7565b8015610fc85780601f10610f9d57610100808354040283529160200191610fc8565b820191906000526020600020905b815481529060010190602001808311610fab57829003601f168201915b50505050506040518060400160405280600781526020017f44656c6574656400000000000000000000000000000000000000000000000000815250611766565b1561101257600080fd5b6001600082815260200190815260200160002060036000838152602001908152602001600020838154811061104a57611049612189565b5b9060005260206000200190806001815401808255809150506001900390600052602060002001600090919091909150908054611085906121e7565b611090929190611a15565b506040518060400160405280600781526020017f44656c65746564000000000000000000000000000000000000000000000000008152506003600083815260200190815260200160002083815481106110ec576110eb612189565b5b90600052602060002001908051906020019061110992919061196e565b505050565b611117336117bf565b611156576040517f08c379a000000000000000000000000000000000000000000000000000000000815260040161114d90612415565b60405180910390fd5b60006111613361169d565b905060016000828152602001908152602001600020805490508210801561127b57506112796001600083815260200190815260200160002083815481106111ab576111aa612189565b5b9060005260206000200180546111c0906121e7565b80601f01602080910402602001604051908101604052809291908181526020018280546111ec906121e7565b80156112395780601f1061120e57610100808354040283529160200191611239565b820191906000526020600020905b81548152906001019060200180831161121c57829003601f168201915b50505050506040518060400160405280600781526020017f44656c6574656400000000000000000000000000000000000000000000000000815250611766565b155b6112ba576040517f08c379a00000000000000000000000000000000000000000000000000000000081526004016112b190612169565b60405180910390fd5b600360008281526020019081526020016000206001600083815260200190815260200160002083815481106112f2576112f1612189565b5b906000526020600020019080600181540180825580915050600190039060005260206000200160009091909190915090805461132d906121e7565b611338929190611a15565b506040518060400160405280600781526020017f44656c657465640000000000000000000000000000000000000000000000000081525060016000838152602001908152602001600020838154811061139457611393612189565b5b9060005260206000200190805190602001906113b192919061196e565b5060026000828152602001908152602001600020600083815260200190815260200160002060006113e29190611aa2565b5050565b606060006113f33361169d565b905060016000828152602001908152602001600020805490508310801561150d575061150b60016000838152602001908152602001600020848154811061143d5761143c612189565b5b906000526020600020018054611452906121e7565b80601f016020809104026020016040519081016040528092919081815260200182805461147e906121e7565b80156114cb5780601f106114a0576101008083540402835291602001916114cb565b820191906000526020600020905b8154815290600101906020018083116114ae57829003601f168201915b50505050506040518060400160405280600781526020017f44656c6574656400000000000000000000000000000000000000000000000000815250611766565b155b61154c576040517f08c379a000000000000000000000000000000000000000000000000000000000815260040161154390612169565b60405180910390fd5b6002600082815260200190815260200160002060008481526020019081526020016000208054806020026020016040519081016040528092919081815260200182805480156115f057602002820191906000526020600020905b8160009054906101000a900473ffffffffffffffffffffffffffffffffffffffff1673ffffffffffffffffffffffffffffffffffffffff16815260200190600101908083116115a6575b5050505050915050919050565b611606336117bf565b611645576040517f08c379a000000000000000000000000000000000000000000000000000000000815260040161163c90612415565b60405180910390fd5b600160006116523361169d565b81526020019081526020016000208190806001815401808255809150506001900390600052602060002001600090919091909150908051906020019061169992919061196e565b5050565b6000807fffffffffffffffffffffffffffffffffffffffffffffffffffffffffffffffff905060005b60008054905081101561175c578373ffffffffffffffffffffffffffffffffffffffff16600082815481106116fe576116fd612189565b5b9060005260206000200160009054906101000a900473ffffffffffffffffffffffffffffffffffffffff1673ffffffffffffffffffffffffffffffffffffffff161415611749578091505b80806117549061252a565b9150506116c6565b5080915050919050565b60008160405160200161177991906125af565b60405160208183030381529060405280519060200120836040516020016117a091906125af565b6040516020818303038152906040528051906020012014905092915050565b600080600090505b600080549050811015611863578273ffffffffffffffffffffffffffffffffffffffff16600082815481106117ff576117fe612189565b5b9060005260206000200160009054906101000a900473ffffffffffffffffffffffffffffffffffffffff1673ffffffffffffffffffffffffffffffffffffffff161415611850576001915050611869565b808061185b9061252a565b9150506117c7565b50600090505b919050565b600080600090505b60026000868152602001908152602001600020600085815260200190815260200160002080549050811015611961578273ffffffffffffffffffffffffffffffffffffffff1660026000878152602001908152602001600020600086815260200190815260200160002082815481106118f2576118f1612189565b5b9060005260206000200160009054906101000a900473ffffffffffffffffffffffffffffffffffffffff1673ffffffffffffffffffffffffffffffffffffffff16141561194e5760018161194691906125c6565b915050611967565b80806119599061252a565b915050611876565b50600090505b9392505050565b82805461197a906121e7565b90600052602060002090601f01602090048101928261199c57600085556119e3565b82601f106119b557805160ff19168380011785556119e3565b828001600101855582156119e3579182015b828111156119e25782518255916020019190600101906119c7565b5b5090506119f09190611ac3565b5090565b5080546000825590600052602060002090810190611a129190611ae0565b50565b828054611a21906121e7565b90600052602060002090601f016020900481019282611a435760008555611a91565b82601f10611a545780548555611a91565b82800160010185558215611a9157600052602060002091601f016020900482015b82811115611a90578254825591600101919060010190611a75565b5b509050611a9e9190611ac3565b5090565b5080546000825590600052602060002090810190611ac09190611ac3565b50565b5b80821115611adc576000816000905550600101611ac4565b5090565b5b80821115611b005760008181611af79190611b04565b50600101611ae1565b5090565b508054611b10906121e7565b6000825580601f10611b225750611b41565b601f016020900490600052602060002090810190611b409190611ac3565b5b50565b6000604051905090565b600080fd5b600080fd5b6000819050919050565b611b6b81611b58565b8114611b7657600080fd5b50565b600081359050611b8881611b62565b92915050565b600060208284031215611ba457611ba3611b4e565b5b6000611bb284828501611b79565b91505092915050565b600073ffffffffffffffffffffffffffffffffffffffff82169050919050565b6000611be682611bbb565b9050919050565b611bf681611bdb565b8114611c0157600080fd5b50565b600081359050611c1381611bed565b92915050565b60008060408385031215611c3057611c2f611b4e565b5b6000611c3e85828601611b79565b9250506020611c4f85828601611c04565b9150509250929050565b600081519050919050565b600082825260208201905092915050565b60005b83811015611c93578082015181840152602081019050611c78565b83811115611ca2576000848401525b50505050565b6000601f19601f8301169050919050565b6000611cc482611c59565b611cce8185611c64565b9350611cde818560208601611c75565b611ce781611ca8565b840191505092915050565b60006020820190508181036000830152611d0c8184611cb9565b905092915050565b600080600060608486031215611d2d57611d2c611b4e565b5b6000611d3b86828701611b79565b9350506020611d4c86828701611b79565b9250506040611d5d86828701611b79565b9150509250925092565b611d7081611bdb565b82525050565b6000602082019050611d8b6000830184611d67565b92915050565b600081519050919050565b600082825260208201905092915050565b6000819050602082019050919050565b600082825260208201905092915050565b6000611dd982611c59565b611de38185611dbd565b9350611df3818560208601611c75565b611dfc81611ca8565b840191505092915050565b6000611e138383611dce565b905092915050565b6000602082019050919050565b6000611e3382611d91565b611e3d8185611d9c565b935083602082028501611e4f85611dad565b8060005b85811015611e8b5784840389528151611e6c8582611e07565b9450611e7783611e1b565b925060208a01995050600181019050611e53565b50829750879550505050505092915050565b60006020820190508181036000830152611eb78184611e28565b905092915050565b600081519050919050565b600082825260208201905092915050565b6000819050602082019050919050565b611ef481611bdb565b82525050565b6000611f068383611eeb565b60208301905092915050565b6000602082019050919050565b6000611f2a82611ebf565b611f348185611eca565b9350611f3f83611edb565b8060005b83811015611f70578151611f578882611efa565b9750611f6283611f12565b925050600181019050611f43565b5085935050505092915050565b60006020820190508181036000830152611f978184611f1f565b905092915050565b600080fd5b600080fd5b7f4e487b7100000000000000000000000000000000000000000000000000000000600052604160045260246000fd5b611fe182611ca8565b810181811067ffffffffffffffff8211171561200057611fff611fa9565b5b80604052505050565b6000612013611b44565b905061201f8282611fd8565b919050565b600067ffffffffffffffff82111561203f5761203e611fa9565b5b61204882611ca8565b9050602081019050919050565b82818337600083830152505050565b600061207761207284612024565b612009565b90508281526020810184848401111561209357612092611fa4565b5b61209e848285612055565b509392505050565b600082601f8301126120bb576120ba611f9f565b5b81356120cb848260208601612064565b91505092915050565b6000602082840312156120ea576120e9611b4e565b5b600082013567ffffffffffffffff81111561210857612107611b53565b5b612114848285016120a6565b91505092915050565b7f496e76616c696400000000000000000000000000000000000000000000000000600082015250565b6000612153600783611c64565b915061215e8261211d565b602082019050919050565b6000602082019050818103600083015261218281612146565b9050919050565b7f4e487b7100000000000000000000000000000000000000000000000000000000600052603260045260246000fd5b7f4e487b7100000000000000000000000000000000000000000000000000000000600052602260045260246000fd5b600060028204905060018216806121ff57607f821691505b60208210811415612213576122126121b8565b5b50919050565b7f416c72656164792044656c657465640000000000000000000000000000000000600082015250565b600061224f600f83611c64565b915061225a82612219565b602082019050919050565b6000602082019050818103600083015261227e81612242565b9050919050565b7f4164647265737320696e76616c69640000000000000000000000000000000000600082015250565b60006122bb600f83611c64565b91506122c682612285565b602082019050919050565b600060208201905081810360008301526122ea816122ae565b9050919050565b7f4e6f204163636573730000000000000000000000000000000000000000000000600082015250565b6000612327600983611c64565b9150612332826122f1565b602082019050919050565b600060208201905081810360008301526123568161231a565b9050919050565b7f596f752061726520616c72656164792072656769737465726564000000000000600082015250565b6000612393601a83611c64565b915061239e8261235d565b602082019050919050565b600060208201905081810360008301526123c281612386565b9050919050565b7f596f7520617265206e6f74207265676973746572656400000000000000000000600082015250565b60006123ff601683611c64565b915061240a826123c9565b602082019050919050565b6000602082019050818103600083015261242e816123f2565b9050919050565b7f546869732041646472657373206973206e6f7420686176696e6720616363657360008201527f7300000000000000000000000000000000000000000000000000000000000000602082015250565b6000612491602183611c64565b915061249c82612435565b604082019050919050565b600060208201905081810360008301526124c081612484565b9050919050565b7f4e487b7100000000000000000000000000000000000000000000000000000000600052601160045260246000fd5b600061250182611b58565b915061250c83611b58565b92508282101561251f5761251e6124c7565b5b828203905092915050565b600061253582611b58565b91507fffffffffffffffffffffffffffffffffffffffffffffffffffffffffffffffff821415612568576125676124c7565b5b600182019050919050565b600081905092915050565b600061258982611c59565b6125938185612573565b93506125a3818560208601611c75565b80840191505092915050565b60006125bb828461257e565b915081905092915050565b60006125d182611b58565b91506125dc83611b58565b9250827fffffffffffffffffffffffffffffffffffffffffffffffffffffffffffffffff03821115612611576126106124c7565b5b82820190509291505056fea26469706673582212200db1744526d354c089a3a13cf645d265274504fc13b4affaa95e9404c9682cd564736f6c63430008090033",
  "linkReferences": {},
  "deployedLinkReferences": {}
}